:03000000020B8F61
:0C0B8F00787FE4F6D8FD75811C020A4E48
:10080000000000000000002F000000070007001497
:100810007F147F14242A7F2A12C4C8102646364922
:100820005522500005030000001C22410000412217
:100830001C0014083E081408083E08080000503048
:10084000001010101010006060000020100804025A
:100850003E5149453E00427F400042615149462198
:1008600041454B311814127F1027454545393C4A04
:100870004949300171090503364949493606494954
:10088000291E0036360000005636000008142241AA
:100890000014141414140041221408020151090612
:1008A000324959513E7E1111117E7F494949363EE8
:1008B000414141227F4141221C7F494949417F09F1
:1008C0000909013E4149497A7F0808087F00417FB4
:1008D00041002040413F017F081422417F404040B9
:1008E000407F020C027F7F0408107F3E4141413E61
:1008F0007F090909063E4151215E7F0919294646B3
:100900004949493101017F01013F4040403F1F20DB
:1009100040201F3F4038403F6314081463070870AD
:1009200008076151494543007F414100552A552A36
:10093000550041417F000402010204404040404014
:10094000000102040020545454787F48444438384D
:1009500044444420384444487F3854545418087E52
:100960000901020C5252523E7F0804047800447D73
:1009700040002040443D007F1028440000417F405B
:10098000007C041804787C08040478384444443813
:100990007C14141408081414187C7C0804040848F7
:1009A00054545420043F4440203C4040207C1C20B0
:1009B00040201C3C4030403C44281028440C5050FF
:0C09C000503C4464544C4400083E41008C
:0C0B9B00758920758DFD759850D28E2252
:080BBB008F993099FDC29922C7
:070BC3003098FDC298AF99C4
:010BCA002208
:060B25008B1A8A1B891CDB
:100B2B00E4FDFCAB1AAA1BA91C8D828C831209E570
:0D0B3B00FF600A120BBB0DBD00010C80E62F
:010B4800228A
:100B4900E4FEC281EF30E704D2828002C282D28100
:080B5900EF25E0FF0EBE08EAE3
:010B61002271
:0A0BA700D283C284120B49D28422CB
:0A0BB100C283C284120B49D28422D1
:100B7B00AC07ED54074440FF120BB1EC547F44809B
:040B8B00FF020BB1A9
:100B6200E4FDFF120B7B7DF87C01E4FF120BA7ED85
:080B72001D70011CED4C70F236
:010B7A002258
:100A8300D285D2847F21120BB17FB2120BB17F13B7
:100A9300120BB17F20120BB17F09120BB1120B6243
:100AA3007F08120BB17F0C120BB1E4FDFF020B7B2D
:100AB300AE07EED39406501EEEC394014018ED9496
:100AC300014013EDD3940E500DED1475F006A4FF01
:070AD300EE14FD120B7B2263
:020A1200AD072E
:100A1400EDC394204006EDD3947C40027D5CE4FC5D
:100A240075F005EDA42460F582E5F03407F583E55F
:100A3400822CF582E43583F583E49325E0FF120BE1
:0A0A4400A70CBC05DBE4FF020BA7C2
:100B00008B178A188919AB17AA18A9191209CC6072
:100B1000130519E5197002051814F91209CCFF1212
:050B20000A1280E22230
:100ADA00E4FDFCC3ED9FEE6480F8EC648098501549
:100AEA00E4FBFA0BBB00010ABA03F8BBE8F50DBD3B
:050AFA0000010C80DE8C
:010AFF0022D4
:100A4E00120B9B120A837D017F01120AB3E4FDFF94
:100A5E00120B7BE4FDFC120BC374082DF8A6070DD8
:100A6E00BD00010CED640C4C70EC7B007A00790833
:050A7E00120B0080DEF8
:1009CC00BB010689828A83E0225002E722BBFE0229
:0909DC00E32289828A83E493225C
:1009E500BB010CE58229F582E5833AF583E02250C7
:1009F50006E92582F8E622BBFE06E92582F8E22211
:0D0A0500E58229F582E5833AF583E493222A
:00000001FF
